{
  "abi": [
    {
      "inputs": [],
      "stateMutability": "payable",
      "type": "constructor"
    },
    {
      "inputs": [
        {
          "internalType": "address",
          "name": "",
          "type": "address"
        }
      ],
      "name": "customerBalance",
      "outputs": [
        {
          "internalType": "uint256",
          "name": "",
          "type": "uint256"
        }
      ],
      "stateMutability": "view",
      "type": "function"
    },
    {
      "inputs": [],
      "name": "deposit",
      "outputs": [],
      "stateMutability": "payable",
      "type": "function"
    },
    {
      "inputs": [
        {
          "internalType": "address",
          "name": "customer",
          "type": "address"
        }
      ],
      "name": "getBalance",
      "outputs": [
        {
          "internalType": "uint256",
          "name": "balance",
          "type": "uint256"
        }
      ],
      "stateMutability": "view",
      "type": "function"
    },
    {
      "inputs": [],
      "name": "withdraw",
      "outputs": [],
      "stateMutability": "payable",
      "type": "function"
    }
  ],
  "bytecode": "6080604052600080546001600160a01b031916331790556101bd806100256000396000f3fe60806040526004361061003f5760003560e01c806337ebe47b146100445780633ccfd60b14610089578063d0e30db014610093578063f8b2cb4f1461009b575b600080fd5b34801561005057600080fd5b506100776004803603602081101561006757600080fd5b50356001600160a01b03166100ce565b60408051918252519081900360200190f35b6100916100e0565b005b610091610155565b3480156100a757600080fd5b50610077600480360360208110156100be57600080fd5b50356001600160a01b031661016c565b60016020526000908152604090205481565b33600090815260016020526040902054806100fa57600080fd5b60405133908290600081818185875af1925050503d806000811461013a576040519150601f19603f3d011682016040523d82523d6000602084013e61013f565b606091505b5050336000908152600160205260408120555050565b336000908152600160205260409020805434019055565b6001600160a01b03166000908152600160205260409020549056fea26469706673582212205e5d109a309d6259d8d75b8878c8eb40db9452011328817a6e01f6becafcbdac64736f6c634300060c0033",
  "bytecodeSha1": "4d5f52008fee995fb1210b4c10b567718a331fb1",
  "compiler": {
    "evm_version": "istanbul",
    "optimizer": {
      "enabled": true,
      "runs": 200
    },
    "version": "0.6.12+commit.27d51765"
  },
  "contractName": "Bank",
  "language": "Solidity",
  "natspec": {
    "kind": "dev",
    "methods": {},
    "version": 1
  },
  "opcodes": "PUSH1 0x80 PUSH1 0x40 MSTORE PUSH1 0x4 CALLDATASIZE LT PUSH2 0x3F JUMPI PUSH1 0x0 CALLDATALOAD PUSH1 0xE0 SHR DUP1 PUSH4 0x37EBE47B EQ PUSH2 0x44 JUMPI DUP1 PUSH4 0x3CCFD60B EQ PUSH2 0x89 JUMPI DUP1 PUSH4 0xD0E30DB0 EQ PUSH2 0x93 JUMPI DUP1 PUSH4 0xF8B2CB4F EQ PUSH2 0x9B JUMPI JUMPDEST PUSH1 0x0 DUP1 REVERT JUMPDEST CALLVALUE DUP1 ISZERO PUSH2 0x50 JUMPI PUSH1 0x0 DUP1 REVERT JUMPDEST POP PUSH2 0x77 PUSH1 0x4 DUP1 CALLDATASIZE SUB PUSH1 0x20 DUP2 LT ISZERO PUSH2 0x67 JUMPI PUSH1 0x0 DUP1 REVERT JUMPDEST POP CALLDATALOAD PUSH1 0x1 PUSH1 0x1 PUSH1 0xA0 SHL SUB AND PUSH2 0xCE JUMP JUMPDEST PUSH1 0x40 DUP1 MLOAD SWAP2 DUP3 MSTORE MLOAD SWAP1 DUP2 SWAP1 SUB PUSH1 0x20 ADD SWAP1 RETURN JUMPDEST PUSH2 0x91 PUSH2 0xE0 JUMP JUMPDEST STOP JUMPDEST PUSH2 0x91 PUSH2 0x155 JUMP JUMPDEST CALLVALUE DUP1 ISZERO PUSH2 0xA7 JUMPI PUSH1 0x0 DUP1 REVERT JUMPDEST POP PUSH2 0x77 PUSH1 0x4 DUP1 CALLDATASIZE SUB PUSH1 0x20 DUP2 LT ISZERO PUSH2 0xBE JUMPI PUSH1 0x0 DUP1 REVERT JUMPDEST POP CALLDATALOAD PUSH1 0x1 PUSH1 0x1 PUSH1 0xA0 SHL SUB AND PUSH2 0x16C JUMP JUMPDEST PUSH1 0x1 PUSH1 0x20 MSTORE PUSH1 0x0 SWAP1 DUP2 MSTORE PUSH1 0x40 SWAP1 KECCAK256 SLOAD DUP2 JUMP JUMPDEST CALLER PUSH1 0x0 SWAP1 DUP2 MSTORE PUSH1 0x1 PUSH1 0x20 MSTORE PUSH1 0x40 SWAP1 KECCAK256 SLOAD DUP1 PUSH2 0xFA JUMPI PUSH1 0x0 DUP1 REVERT JUMPDEST PUSH1 0x40 MLOAD CALLER SWAP1 DUP3 SWAP1 PUSH1 0x0 DUP2 DUP2 DUP2 DUP6 DUP8 GAS CALL SWAP3 POP POP POP RETURNDATASIZE DUP1 PUSH1 0x0 DUP2 EQ PUSH2 0x13A JUMPI PUSH1 0x40 MLOAD SWAP2 POP PUSH1 0x1F NOT PUSH1 0x3F RETURNDATASIZE ADD AND DUP3 ADD PUSH1 0x40 MSTORE RETURNDATASIZE DUP3 MSTORE RETURNDATASIZE PUSH1 0x0 PUSH1 0x20 DUP5 ADD RETURNDATACOPY PUSH2 0x13F JUMP JUMPDEST PUSH1 0x60 SWAP2 POP JUMPDEST POP POP CALLER PUSH1 0x0 SWAP1 DUP2 MSTORE PUSH1 0x1 PUSH1 0x20 MSTORE PUSH1 0x40 DUP2 KECCAK256 SSTORE POP POP JUMP JUMPDEST CALLER PUSH1 0x0 SWAP1 DUP2 MSTORE PUSH1 0x1 PUSH1 0x20 MSTORE PUSH1 0x40 SWAP1 KECCAK256 DUP1 SLOAD CALLVALUE ADD SWAP1 SSTORE JUMP JUMPDEST PUSH1 0x1 PUSH1 0x1 PUSH1 0xA0 SHL SUB AND PUSH1 0x0 SWAP1 DUP2 MSTORE PUSH1 0x1 PUSH1 0x20 MSTORE PUSH1 0x40 SWAP1 KECCAK256 SLOAD SWAP1 JUMP INVALID LOG2 PUSH5 0x6970667358 0x22 SLT KECCAK256 0x5E 0x5D LT SWAP11 ADDRESS SWAP14 PUSH3 0x59D8D7 JUMPDEST DUP9 PUSH25 0xC8EB40DB9452011328817A6E01F6BECAFCBDAC64736F6C6343 STOP MOD 0xC STOP CALLER ",
  "sha1": "094395c37abc6781f8ee56c4c0dee1bf2659534f",
  "source": "pragma solidity ^0.6.0;\n\ncontract Bank{\n  address private _owner;\n    constructor() public payable{\n        _owner = msg.sender;\n    }\n   mapping(address=>uint) public customerBalance;\n\n   function getBalance(address customer) public view returns (uint balance) {\n     return customerBalance[customer];\n   }\n   \n   function deposit() public payable {\n     customerBalance[msg.sender] = customerBalance[msg.sender]+= msg.value;\n   }\n\n   function withdraw() public payable {\n     uint balance = customerBalance[msg.sender];\n     if(balance == 0){\n         revert();\n     }\n     msg.sender.call{value:balance}(\"\");\n     customerBalance[msg.sender] = 0;\n   }\n}\n",
  "sourcePath": "contracts/Bank.sol",
  "type": "contract"
}