{
  "abi": [
    {
      "inputs": [],
      "stateMutability": "payable",
      "type": "constructor"
    },
    {
      "inputs": [],
      "name": "steal",
      "outputs": [],
      "stateMutability": "payable",
      "type": "function"
    }
  ],
  "bytecode": "6080604052600080546001600160a01b03191633179055608d806100246000396000f3fe608060405260043610601c5760003560e01c8063cf7a8965146021575b600080fd5b60276029565b005b60405133904780156108fc02916000818181858888f193505050501580156054573d6000803e3d6000fd5b5056fea264697066735822122089f7792d24949381396a5261c88843edd7baa53ee9863363547d53b2ced652c764736f6c634300060c0033",
  "bytecodeSha1": "9d3d42d1b1f9f6ba5703d348f54c7a9756d346e7",
  "compiler": {
    "evm_version": "istanbul",
    "optimizer": {
      "enabled": true,
      "runs": 200
    },
    "version": "0.6.12+commit.27d51765"
  },
  "contractName": "StealFromMe",
  "language": "Solidity",
  "natspec": {
    "kind": "dev",
    "methods": {},
    "version": 1
  },
  "opcodes": "PUSH1 0x80 PUSH1 0x40 MSTORE PUSH1 0x4 CALLDATASIZE LT PUSH1 0x1C JUMPI PUSH1 0x0 CALLDATALOAD PUSH1 0xE0 SHR DUP1 PUSH4 0xCF7A8965 EQ PUSH1 0x21 JUMPI JUMPDEST PUSH1 0x0 DUP1 REVERT JUMPDEST PUSH1 0x27 PUSH1 0x29 JUMP JUMPDEST STOP JUMPDEST PUSH1 0x40 MLOAD CALLER SWAP1 SELFBALANCE DUP1 ISZERO PUSH2 0x8FC MUL SWAP2 PUSH1 0x0 DUP2 DUP2 DUP2 DUP6 DUP9 DUP9 CALL SWAP4 POP POP POP POP ISZERO DUP1 ISZERO PUSH1 0x54 JUMPI RETURNDATASIZE PUSH1 0x0 DUP1 RETURNDATACOPY RETURNDATASIZE PUSH1 0x0 REVERT JUMPDEST POP JUMP INVALID LOG2 PUSH5 0x6970667358 0x22 SLT KECCAK256 DUP10 0xF7 PUSH26 0x2D24949381396A5261C88843EDD7BAA53EE9863363547D53B2CE 0xD6 MSTORE 0xC7 PUSH5 0x736F6C6343 STOP MOD 0xC STOP CALLER ",
  "sha1": "0388cf402806741ffb9798f23c7107cb56073114",
  "source": "pragma solidity ^0.6.0;\n\n \ncontract StealFromMe {\n    address private _owner;\n    constructor() public payable{\n        _owner = msg.sender;\n    }\n\n    function steal() public payable {\n        msg.sender.transfer(address(this).balance);\n    }\n}",
  "sourcePath": "contracts/StealFromMe.sol",
  "type": "contract"
}